:100000000C9485000C94AD000C94AD000C94AD00E4
:100010000C94AD000C94AD000C94AD000C94AD00AC
:100020000C94AD000C94AD000C94AD000C94AD009C
:100030000C94AD000C94AD000C94AD000C94AD008C
:100040000C944C030C94AD000C94BC030C949603DC
:100050000C94AD000C94AD000C94AD000C94AD006C
:100060000C94AD000C94AD006364696E6F70737591
:1000700078585B00000000002300260029000000E3
:100080000008000201000003040700000000000057
:100090000000207C2000EBAFB8EAB090ECA7800015
:1000A000EAB090ECA780003A2000EC84BCEC849C81
:1000B000200000000000250028002B0000000000A8
:1000C000240027002A000404040404040404020297
:1000D00002020202030303030303010204081020C7
:1000E0004080010204081020010204081020EC8462
:1000F000BCEC849C2034EAB09C20ED9995EC9DB832
:1001000020EC8B9CEC9E9100310611241FBECFEF9A
:10011000D8E0DEBFCDBF11E0A0E0B1E0E8EBF3E155
:1001200002C005900D92AC39B107D9F722E0ACE9D5
:10013000B1E001C01D92A539B207E1F710E0C5E8B2
:10014000D0E004C02197FE010E948006C438D10788
:10015000C9F70E94EE030C94DA090C940000833076
:1001600081F028F4813099F08230A9F00895873029
:10017000A9F08830C9F08430B1F4809180008F7D7F
:1001800003C0809180008F7780938000089584B5AC
:100190008F7784BD089584B58F7DFBCF8091B000AB
:1001A0008F778093B00008958091B0008F7DF9CF54
:1001B0002FB7F8946091F4017091F5018091F601E8
:1001C0009091F7012FBF0895AF92BF92CF92DF9227
:1001D000EF92FF920F931F93CF93DF936C017B01FC
:1001E0008B01040F151FEB015E01AE18BF08C0178D
:1001F000D10759F06991D601ED91FC910190F08100
:10020000E02DC6010995892B79F7C501DF91CF91C2
:100210001F910F91FF90EF90DF90CF90BF90AF9024
:100220000895FC01538D448D252F30E0842F90E0FC
:10023000821B930B541710F0CF96089501970895E1
:10024000FC01918D828D981761F0A28DAE0FBF2FAA
:10025000B11D5D968C91928D9F5F9F73928F90E000
:1002600008958FEF9FEF0895FC01918D828D98176F
:1002700031F0828DE80FF11D858D90E008958FEFAC
:100280009FEF0895FC01918D228D892F90E0805C75
:100290009F4F821B91098F739927089588EF91E0F2
:1002A0000E94420121E0892B09F420E0822F089569
:1002B00080E090E0892B29F00E944E0181110C947E
:1002C00000000895FC01A48DA80FB92FB11DA35AF9
:1002D000BF4F2C91848D90E001968F739927848F66
:1002E000A689B7892C93A089B1898C918370806489
:1002F0008C93938D848D981306C00288F389E02D2A
:1003000080818F7D80830895EF92FF920F931F93DA
:10031000CF93DF93EC0181E0888F9B8D8C8D9813B8
:100320001AC0E889F989808185FF15C09FB7F894C4
:10033000EE89FF896083E889F98980818370806410
:1003400080839FBF81E090E0DF91CF911F910F915B
:10035000FF90EF900895F62E0B8D10E00F5F1F4F6A
:100360000F731127E02E8C8D8E110CC00FB607FC79
:10037000FACFE889F989808185FFF5CFCE010E9407
:100380006201F1CFEB8DEC0FFD2FF11DE35AFF4F12
:10039000F0829FB7F8940B8FEA89FB898081806295
:1003A000CFCF682F88EF91E00C9484010F931F93B7
:1003B000CF93DF938C01D0E0C0E0F801EC0FFD1F7C
:1003C0006491662341F088EF91E00E948401892BBB
:1003D00011F02196F2CFCE01DF91CF911F910F91B5
:1003E0000895CF93DF93EC01888D8823B9F0AA8913
:1003F000BB89E889F9898C9185FD03C0808186FDE0
:100400000DC00FB607FCF7CF8C9185FFF2CF80812E
:1004100085FFEDCFCE010E946201E9CFDF91CF9140
:100420000895CF92DF92EF92FF920F931F93CF9395
:10043000DF938093A80102E111E0D0E0C0E0EC2E50
:10044000F80121918F0130E0F901E258FF4F8491CA
:10045000F901E652FF4FF490F901EA53FF4FD490AF
:10046000DD20E9F0C090A80181110E94AF00ED2DC0
:10047000F0E0EE0FFF1FEE54FF4FA591B4912FB7A0
:10048000F8948C2D90E002C095958795EA94E2F758
:10049000EC9180FD12C0F094FE22FC922FBF2196B9
:1004A000C330D10509F0CBCFDF91CF911F910F91D0
:1004B000FF90EF90DF90CF900895FE2AEECFFC01E1
:1004C00001900020E9F73197AF01481B590BBC019F
:1004D00088EF91E00C94E4008F929F92AF92BF92CC
:1004E0000F931F93CF93DF93CDB7DEB7A1970FB6CE
:1004F000F894DEBF0FBECDBF19A2423008F44AE027
:100500008E010F5D1F4F842E912CB12CA12CA501C3
:1005100094010E945E06E62FB901CA01EA30F4F4A4
:10052000E05DD801EE938D01232B242B252B79F749
:1005300090E080E0109719F0CD010E945F02A19633
:100540000FB6F894DEBF0FBECDBFDF91CF911F91E4
:100550000F91BF90AF909F908F900895E95CE1CF8D
:10056000CF93DF930E945F02EC0189E191E00E944A
:100570005F028C0F9D1FDF91CF910895CF92DF9284
:10058000EF92FF920F931F93CF93DF93C5E1D1E0DA
:10059000C12CD12C7601C3948AEA90E00E94D60146
:1005A0004AE0C701B6010E946C0287EA90E00E940F
:1005B000D601299130E0F901E258FF4F8491F90109
:1005C000E652FF4F1491F901EA53FF4F04910111D4
:1005D00022C080EA90E00E94D60184E0C81621F093
:1005E00082E990E00E94D6018FEFC81AD80AE80A83
:1005F000F80A85E0C816D104E104F10469F689E13E
:1006000091E0DF91CF911F910F91FF90EF90DF90DC
:10061000CF900C945F0281110E94AF00E02FF0E0B8
:10062000EE0FFF1FEC58FF4FA591B491EC911E23E4
:1006300081F286E990E0CFCFCF93DF93EC018CE19C
:1006400091E00E945F02CE010E945F0280E20E9460
:10065000D10160919C0170919D0180919E019091CA
:100660009F014AE00E946C0280E20E94D10181E277
:1006700091E00E945F0280E20E94D1016091A80196
:1006800070E090E080E04AE00E946C0289E191E035
:10069000DF91CF910C945F021F920F920FB60F92D1
:1006A00011242F933F938F939F93AF93BF93809188
:1006B000F4019091F501A091F601B091F70130910C
:1006C000F30123E0230F2D3758F50196A11DB11D2D
:1006D0002093F3018093F4019093F501A093F60128
:1006E000B093F7018091EF019091F001A091F10199
:1006F000B091F2010196A11DB11D8093EF0190937D
:10070000F001A093F101B093F201BF91AF919F91DD
:100710008F913F912F910F900FBE0F901F901895C2
:1007200026E8230F0296A11DB11DD2CF1F920F9272
:100730000FB60F9211242F933F934F935F936F93B4
:100740007F938F939F93AF93BF93EF93FF9388EF24
:1007500091E00E946201FF91EF91BF91AF919F9153
:100760008F917F916F915F914F913F912F910F905A
:100770000FBE0F901F9018951F920F920FB60F92F9
:1007800011242F938F939F93EF93FF93E09108028F
:10079000F09109028081E0910E02F0910F0282FD3A
:1007A0001BC09081809111028F5F8F732091120284
:1007B000821741F0E0911102F0E0E850FE4F958F72
:1007C00080931102FF91EF919F918F912F910F9044
:1007D0000FBE0F901F9018958081F4CFCF93DF93B9
:1007E000CDB7DEB72F970FB6F894DEBF0FBECDBFE3
:1007F000789484B5826084BD84B5816084BD85B5FC
:10080000826085BD85B5816085BD80916E00816007
:1008100080936E00109281008091810082608093AD
:1008200081008091810081608093810080918000AF
:100830008160809380008091B10084608093B100DA
:100840008091B00081608093B00080917A008460D4
:1008500080937A0080917A00826080937A00809100
:100860007A00816080937A0080917A00806880931A
:100870007A001092C100E0910802F091090282E032
:100880008083E0910402F09105021082E09106025B
:10089000F091070280E1808310921002E0910C0237
:1008A000F0910D0286E08083E0910A02F0910B0244
:1008B000808180618083E0910A02F0910B02808147
:1008C00088608083E0910A02F0910B028081806849
:1008D0008083E0910A02F0910B0280818F7D8083FA
:1008E000A5E1B1E029E131E08D9190E0FC01E65213
:1008F000FF4F44918A539F4FFC0184918823D1F08C
:1009000090E0880F991FFC01E454FF4F65917491AA
:10091000FC01EE54FF4F059114919FB7F894FB0131
:100920005081842F809585238083F8018081482B16
:1009300040839FBF2A173B07B9F68EEE90E00E94D6
:10094000D60189E191E00E945F0280E00E941102DD
:10095000A2E1B1E025E131E08D9190E0FC01E652A9
:10096000FF4F64918A539F4FFC0184918823A1F02B
:1009700090E0880F991FFC01E454FF4F459154917A
:10098000FC01EE54FF4F859194918FB7F894FA01D2
:100990009081962B90838FBF2A173B07E9F686E25A
:1009A00091E00E94B00282E391E00E941C030E9449
:1009B000BE020E94D8006093EB017093EC0180931B
:1009C000ED019093EE0109EA11E07E01FFE0EF0EE8
:1009D000F11C4E012DE0820E911CAE014F5F5F4F66
:1009E0005A016E0159E0C50ED11C88EF91E00E94BA
:1009F0004201181619060CF0BFC088EF91E00E9462
:100A000020019091EA018D3019F08A3009F0A1C0DF
:100A1000992329F088E391E00E94B00217C0E09189
:100A2000E901EE2399F0F0E0E755FE4F108269E40A
:100A300071E089EA91E00E948606892B61F480E0EA
:100A40000E94110282E391E00E941C031092E901CE
:100A50001092EA01CACFFF92EF929F928F92BF92BB
:100A6000AF92DF92CF9281E591E09F938F931F9396
:100A70000F930E948F060FB6F894DEBF0FBECDBF56
:100A8000039789F529843A844B845C8412141304F7
:100A9000140415046CF46D847E8438E063167104CC
:100AA00038F461E271E0C5010E948606892B19F0D5
:100AB00087E691E0B1CF20929C0130929D01409257
:100AC0009E0150929F01862D0E9411020E94D80023
:100AD0006093A4017093A5018093A6019093A70150
:100AE00088E791E0B1CFFF92EF92DF92CF924CE78F
:100AF00051E05F934F931F930F930E948F060FB6A1
:100B0000F894DEBF0FBECDBF0197A9F449855A8581
:100B10006B857C8580919C0190919D01A0919E01A7
:100B2000B0919F01481759076A077B0721F480910C
:100B3000A801811103C08CE891E06ECF0E94D8001B
:100B40006093A4017093A5018093A6019093A701DF
:100B50007DCF91114ACFE091E901EF3348F491E064
:100B60009E0F9093E901F0E0E755FE4F80833DCF63
:100B7000F1E0F093EA0139CF0E94D8002B013C014B
:100B80008091A8018823E1F08091A4019091A501B2
:100B9000A091A601B091A701A3019201281B390BD6
:100BA0004A0B5B0BDA01C901893B9B40A105B105EA
:100BB00038F080E00E94110282E391E00E941C0361
:100BC0008091A0019091A101A091A201B091A301F7
:100BD000A3019201281B390B4A0B5B0BDA01C901F7
:100BE000883E9340A105B10560F082E391E00E9448
:100BF0001C034092A0015092A1016092A201709248
:100C0000A3010E94D8002B013C018091EB0190913F
:100C1000EC01A091ED01B091EE01A3019201281B1E
:100C2000390B4A0B5B0BDA01C901883E9340A105E1
:100C3000B10550F00E94BE024092EB015092EC01CF
:100C40006092ED017092EE0180E090E0892B09F452
:100C5000CCCE0E944E01882309F4C7CE0E9400002A
:100C6000C4CEE8EFF1E01382128288EE93E0A0E0B8
:100C7000B0E084839583A683B78384E091E0918379
:100C8000808385EC90E09587848784EC90E097875B
:100C9000868780EC90E0918B808B81EC90E0938B49
:100CA000828B82EC90E0958B848B86EC90E0978B26
:100CB000868B118E128E138E148E0895A1E21A2E39
:100CC000AA1BBB1BFD010DC0AA1FBB1FEE1FFF1FF0
:100CD000A217B307E407F50720F0A21BB30BE40B40
:100CE000F50B661F771F881F991F1A9469F7609587
:100CF0007095809590959B01AC01BD01CF01089541
:100D0000EE0FFF1F0590F491E02D0994FB01DC012B
:100D10008D91019080190110D9F3990B0895AEE0DF
:100D2000B0E0E5E9F6E00C94B30985E08C838B89AB
:100D30009C899A838983AE01495E5F4F6D897E8964
:100D4000CE0101960E9433082E96E2E00C94CF0962
:100D500020FD09C0FC0123FD05C022FF02C07383F2
:100D6000628351834083089544FD17C046FD1DC032
:100D7000DB01FC01AA0FBB1FEE1FFF1F1094D1F770
:100D80006A0F7B1F8E1F9F1F660F771F881F991F7B
:100D9000620F711D811D911D089533E0660F771F4D
:100DA000881F991F3150D1F7F3CF34E0F7CF0F935D
:100DB0001F93CF93DF938C01C8010E944C09EC0173
:100DC00097FD08C00E943809892BB1F7B801CE0100
:100DD0000E948809CE01DF91CF911F910F91089554
:100DE0008F929F92AF92BF92EF92FF920F931F93B9
:100DF000CF93DF938C01D62F7A01B22E0E944C093B
:100E00009C0133272B32310529F02D323105A9F40D
:100E10006894B7F8D15061F480E0DF91CF911F91D1
:100E20000F91FF90EF90BF90AF909F908F9008959B
:100E3000C8010E944C0997FDEFCFCB2DCD7F2B2D04
:100E40002073F9F48033E9F4AA24AA94AD0E89F052
:100E5000C8010E944C0997FD0CC0282F2F7D283512
:100E600061F4C264D25029F0C8010E944C0997FF76
:100E700008C0812C912C54011BC0B6FE2BC0C2604F
:100E8000DA2D812C912C540120ED280F283028F1E7
:100E9000C4FD09C02A3008F1C6FF05C02F7D3FEE12
:100EA000320F3630C8F0B8010E948809C1FFB4CFB4
:100EB000C7FF08C0B094A09490948094811C911CAA
:100EC000A11CB11C2C2FB501A401C7010E94A806CA
:100ED00081E0A3CFC261D4CF27504C2FC501B4010C
:100EE0000E94B4064B015C01C260D15009F3C801F5
:100EF0000E944C0997FFC8CFD9CFA0E2B0E0E3E849
:100F0000F7E00C94A8095C01962E7A01CE010196B7
:100F10006C0180E2F60111928A95E9F7F501B3813F
:100F2000890130E020E0712C812CA0E041E050E00C
:100F3000F801B3FD8591B3FF8191982F8F01811145
:100F400007C010E000E0C801A096EDE00C94C409D1
:100F50008E3519F42115310541F1A21713064CF411
:100F60008D3549F18D3229F4811006C0882483948F
:100F70001DC0882009F464C0E92FE695E695E69542
:100F8000EC0DFD2DF11D892F8770BA0101C0660F90
:100F90008A95EAF78081682B6083791651F097155E
:100FA00010F49F5FE9CF9150E7CFA1E02F5F3F4F53
:100FB000BFCF812CFBCF882019F08E8180628E8379
:100FC000AA2359F0F6019E012F5D3F4F8081809545
:100FD00080833196E217F307C9F788248394C5010B
:100FE0000E944C0997FD16C0E82FE695E695E69518
:100FF000EC0DFD2DF11D208130E0AC01477055272F
:1010000002C0359527954A95E2F720FD06C0B50147
:101010000E948809882069F094CFE114F10429F036
:10102000F7018083C70101967C019A94812C91106D
:10103000D6CFE114F10409F486CFF701108283CFF3
:10104000E82FE695E695E695EC0DFD2DF11D982F20
:101050009770BA0101C0660F9A95EAF79081692BE3
:101060006083782EA3CFB0E0A0E0E9E3F8E00C9431
:10107000A6096C01EB015A01FC0117821682512C62
:10108000F601E380FE01E3FC8591E3FE8191182FD8
:10109000EF018823E9F090E00E943809892B21F0C4
:1010A000C6010E94D706ECCF153241F4FE01E3FCE5
:1010B0001591E3FE1191EF01153269F4C6010E940A
:1010C0004C0997FD8EC01817D9F2B6010E94880905
:1010D000852D90E08AC000E01A3231F4E3FC1591CE
:1010E000E3FE1191EF0101E0F12C20ED210F2A30F8
:1010F00048F101FF37C0FF2059F31836B1F11C3613
:1011000009F43DC0112321F3612F70E088E690E0DF
:101110000E944109892BE1F2912C812C00FD06C02F
:10112000F50180809180C50102965C011E3679F53B
:10113000F6014681578170E060E0202FC4010E94D3
:10114000A8069ECF02606F2D70E090E080E040E244
:101150000E94B406F62EFE01E3FC1591E3FE119108
:10116000EF01C3CFFF24FA94C8CFFE01E3FC159131
:10117000E3FE1191EF01183609F0C4CF0860046056
:10118000FE01E3FC1591E3FE1191EF01BBCF133695
:10119000C1F401FD02C0FF24F394C6010E944C0972
:1011A00097FD1FC08114910429F0F4018083C401CC
:1011B00001964C01FA94F110F0CF00FD61CF5394E9
:1011C0005FCF1B35B9F49E01A4016F2DC6010E94AB
:1011D0007D07EC01892B89F7F6018381807309F47F
:1011E00077CF8FEF9FEF511073CFCDB7DEB7EFE022
:1011F0000C94C209C6010E94D70697FDF2CF1F3694
:10120000A9F130F4143641F0193639F0006405C004
:101210001337B9F01537D1F70062202FA4016F2DD5
:10122000C6010E94F0068111C8CFD6CF8114910467
:1012300029F0F4016082C40101964C01FA94FF2068
:1012400071F0C6010E944C093C0197FD08C00E9444
:101250003809892B59F3B601C3010E94880981140A
:10126000910409F4AACFF4011082A7CF0061D5CF71
:1012700091110C94A009803219F089508550C8F75B
:101280000895FC010590061621F00020D9F7C00151
:1012900008953197CF010895CF93DF93EC012B810F
:1012A00020FF1AC026FF0CC02F7B2B838E819F81CD
:1012B00001969F838E838A8190E0DF91CF9108957C
:1012C00022FF18C0E881F9818081082E000C990B5B
:1012D000009729F420622B838FEF9FEFEECF31969A
:1012E000F983E8832E813F812F5F3F4F3F832E8319
:1012F0009927E3CFEA85FB85099597FFF3CF2B81EB
:10130000019621F080E2822B8B83E6CF80E1FBCF38
:10131000FB01238120FF11C026FD0FC08F3F9807DE
:1013200071F082832F7D20642383268137812150B1
:10133000310937832683992708958FEF9FEF08950A
:101340009927882708952F923F924F925F926F922C
:101350007F928F929F92AF92BF92CF92DF92EF9245
:10136000FF920F931F93CF93DF93CDB7DEB7CA1BC6
:10137000DB0B0FB6F894DEBF0FBECDBF09942A88F1
:10138000398848885F846E847D848C849B84AA8499
:10139000B984C884DF80EE80FD800C811B81AA8126
:1013A000B981CE0FD11D0FB6F894DEBF0FBECDBFF1
:0813B000ED010895F894FFCF50
:1013B800000000008401E4001101F1014201200154
:1013C800340108090A020304050D0A0050303620CA
:1013D800004849474800503036205245414459207A
:1013E8003100535441544500503036204552522064
:1013F8004F564552464C4F5700503036204F4646C0
:10140800005030362053455420256C7520253773FD
:101418002025752025630050303620455252205330
:10142800455454494E47530041434B0050303620F1
:101438004B45455020256C752025630050303620DB
:0C14480045525220434F4D4D414E440090
:00000001FF
